{
  "_format": "hh-sol-artifact-1",
  "contractName": "Mdlottery",
  "sourceName": "contracts/Mdlottery.sol",
  "abi": [
    {
      "inputs": [],
      "stateMutability": "nonpayable",
      "type": "constructor"
    },
    {
      "anonymous": false,
      "inputs": [],
      "name": "LotteryReset",
      "type": "event"
    },
    {
      "anonymous": false,
      "inputs": [
        {
          "indexed": true,
          "internalType": "address",
          "name": "playerAddress",
          "type": "address"
        },
        {
          "indexed": false,
          "internalType": "uint256",
          "name": "amountPaid",
          "type": "uint256"
        }
      ],
      "name": "PlayerParticipated",
      "type": "event"
    },
    {
      "anonymous": false,
      "inputs": [
        {
          "indexed": true,
          "internalType": "address",
          "name": "winnerAddress",
          "type": "address"
        },
        {
          "indexed": false,
          "internalType": "uint256",
          "name": "prizeAmount",
          "type": "uint256"
        },
        {
          "indexed": false,
          "internalType": "uint256",
          "name": "randomIndex",
          "type": "uint256"
        }
      ],
      "name": "WinnerPicked",
      "type": "event"
    },
    {
      "inputs": [],
      "name": "getContractBalance",
      "outputs": [
        {
          "internalType": "uint256",
          "name": "",
          "type": "uint256"
        }
      ],
      "stateMutability": "view",
      "type": "function"
    },
    {
      "inputs": [],
      "name": "getPlayers",
      "outputs": [
        {
          "internalType": "address payable[]",
          "name": "",
          "type": "address[]"
        }
      ],
      "stateMutability": "view",
      "type": "function"
    },
    {
      "inputs": [],
      "name": "manager",
      "outputs": [
        {
          "internalType": "address",
          "name": "",
          "type": "address"
        }
      ],
      "stateMutability": "view",
      "type": "function"
    },
    {
      "inputs": [],
      "name": "participate",
      "outputs": [],
      "stateMutability": "payable",
      "type": "function"
    },
    {
      "inputs": [],
      "name": "pickWinner",
      "outputs": [],
      "stateMutability": "nonpayable",
      "type": "function"
    },
    {
      "inputs": [
        {
          "internalType": "uint256",
          "name": "",
          "type": "uint256"
        }
      ],
      "name": "players",
      "outputs": [
        {
          "internalType": "address payable",
          "name": "",
          "type": "address"
        }
      ],
      "stateMutability": "view",
      "type": "function"
    },
    {
      "inputs": [],
      "name": "winner",
      "outputs": [
        {
          "internalType": "address payable",
          "name": "",
          "type": "address"
        }
      ],
      "stateMutability": "view",
      "type": "function"
    },
    {
      "stateMutability": "payable",
      "type": "receive"
    }
  ],
  "bytecode": "0x6080604052348015600f57600080fd5b50336000806101000a81548173ffffffffffffffffffffffffffffffffffffffff021916908373ffffffffffffffffffffffffffffffffffffffff160217905550610df98061005f6000396000f3fe6080604052600436106100745760003560e01c80638b5b9ccc1161004e5780638b5b9ccc146100ed578063d11711a214610118578063dfbf53ae14610122578063f71d96cb1461014d5761007b565b8063481c6a75146100805780635d495aea146100ab5780636f9fb98a146100c25761007b565b3661007b57005b600080fd5b34801561008c57600080fd5b5061009561018a565b6040516100a29190610816565b60405180910390f35b3480156100b757600080fd5b506100c06101ae565b005b3480156100ce57600080fd5b506100d76104fc565b6040516100e4919061084a565b60405180910390f35b3480156100f957600080fd5b50610102610504565b60405161010f9190610935565b60405180910390f35b610120610592565b005b34801561012e57600080fd5b5061013761068f565b6040516101449190610966565b60405180910390f35b34801561015957600080fd5b50610174600480360381019061016f91906109b2565b6106b5565b6040516101819190610966565b60405180910390f35b60008054906101000a900473ffffffffffffffffffffffffffffffffffffffff1681565b60008054906101000a900473ffffffffffffffffffffffffffffffffffffffff1673ffffffffffffffffffffffffffffffffffffffff163373ffffffffffffffffffffffffffffffffffffffff161461023c576040517f08c379a000000000000000000000000000000000000000000000000000000000815260040161023390610a62565b60405180910390fd5b60036001805490501015610285576040517f08c379a000000000000000000000000000000000000000000000000000000000815260040161027c90610af4565b60405180910390fd5b600061028f6106f4565b90506000600180549050826102a49190610b43565b9050600181815481106102ba576102b9610b74565b5b9060005260206000200160009054906101000a900473ffffffffffffffffffffffffffffffffffffffff16600260006101000a81548173ffffffffffffffffffffffffffffffffffffffff021916908373ffffffffffffffffffffffffffffffffffffffff16021790555060004790506000600260009054906101000a900473ffffffffffffffffffffffffffffffffffffffff1673ffffffffffffffffffffffffffffffffffffffff168260405161037290610bd4565b60006040518083038185875af1925050503d80600081146103af576040519150601f19603f3d011682016040523d82523d6000602084013e6103b4565b606091505b50509050806103f8576040517f08c379a00000000000000000000000000000000000000000000000000000000081526004016103ef90610c5b565b60405180910390fd5b600260009054906101000a900473ffffffffffffffffffffffffffffffffffffffff1673ffffffffffffffffffffffffffffffffffffffff167f7e57d825a2478cc8123a008d7d1e20c0f6e8cbca89a7bc100c9b05ecb3698deb8385604051610462929190610c7b565b60405180910390a2600067ffffffffffffffff81111561048557610484610ca4565b5b6040519080825280602002602001820160405280156104b35781602001602082028036833780820191505090505b50600190805190602001906104c992919061072e565b507fc07cdc0437f4a5523d938e3a96f2e751ce4a8e8784c5ce2316c7f833ac26772060405160405180910390a150505050565b600047905090565b6060600180548060200260200160405190810160405280929190818152602001828054801561058857602002820191906000526020600020905b8160009054906101000a900473ffffffffffffffffffffffffffffffffffffffff1673ffffffffffffffffffffffffffffffffffffffff168152602001906001019080831161053e575b5050505050905090565b670de0b6b3a764000034116105dc576040517f08c379a00000000000000000000000000000000000000000000000000000000081526004016105d390610d45565b60405180910390fd5b6001339080600181540180825580915050600190039060005260206000200160009091909190916101000a81548173ffffffffffffffffffffffffffffffffffffffff021916908373ffffffffffffffffffffffffffffffffffffffff1602179055503373ffffffffffffffffffffffffffffffffffffffff167fa1afebc8c6aac5007da005558b12ae48ca348418c8aa8e5cda61208ff174175b34604051610685919061084a565b60405180910390a2565b600260009054906101000a900473ffffffffffffffffffffffffffffffffffffffff1681565b600181815481106106c557600080fd5b906000526020600020016000915054906101000a900473ffffffffffffffffffffffffffffffffffffffff1681565b6000426001805490504460405160200161071093929190610d86565b6040516020818303038152906040528051906020012060001c905090565b8280548282559060005260206000209081019282156107a7579160200282015b828111156107a65782518260006101000a81548173ffffffffffffffffffffffffffffffffffffffff021916908373ffffffffffffffffffffffffffffffffffffffff1602179055509160200191906001019061074e565b5b5090506107b491906107b8565b5090565b5b808211156107d15760008160009055506001016107b9565b5090565b600073ffffffffffffffffffffffffffffffffffffffff82169050919050565b6000610800826107d5565b9050919050565b610810816107f5565b82525050565b600060208201905061082b6000830184610807565b92915050565b6000819050919050565b61084481610831565b82525050565b600060208201905061085f600083018461083b565b92915050565b600081519050919050565b600082825260208201905092915050565b6000819050602082019050919050565b600061089c826107d5565b9050919050565b6108ac81610891565b82525050565b60006108be83836108a3565b60208301905092915050565b6000602082019050919050565b60006108e282610865565b6108ec8185610870565b93506108f783610881565b8060005b8381101561092857815161090f88826108b2565b975061091a836108ca565b9250506001810190506108fb565b5085935050505092915050565b6000602082019050818103600083015261094f81846108d7565b905092915050565b61096081610891565b82525050565b600060208201905061097b6000830184610957565b92915050565b600080fd5b61098f81610831565b811461099a57600080fd5b50565b6000813590506109ac81610986565b92915050565b6000602082840312156109c8576109c7610981565b5b60006109d68482850161099d565b91505092915050565b600082825260208201905092915050565b7f4d646c6f74746572793a20596f7520617265206e6f7420746865206d616e616760008201527f6572000000000000000000000000000000000000000000000000000000000000602082015250565b6000610a4c6022836109df565b9150610a57826109f0565b604082019050919050565b60006020820190508181036000830152610a7b81610a3f565b9050919050565b7f4d646c6f74746572793a205265717569726573206174206c656173742033207060008201527f6c617965727320746f207069636b20612077696e6e6572000000000000000000602082015250565b6000610ade6037836109df565b9150610ae982610a82565b604082019050919050565b60006020820190508181036000830152610b0d81610ad1565b9050919050565b7f4e487b7100000000000000000000000000000000000000000000000000000000600052601260045260246000fd5b6000610b4e82610831565b9150610b5983610831565b925082610b6957610b68610b14565b5b828206905092915050565b7f4e487b7100000000000000000000000000000000000000000000000000000000600052603260045260246000fd5b600081905092915050565b50565b6000610bbe600083610ba3565b9150610bc982610bae565b600082019050919050565b6000610bdf82610bb1565b9150819050919050565b7f4d646c6f74746572793a204661696c656420746f2073656e64207072697a652060008201527f746f2077696e6e65720000000000000000000000000000000000000000000000602082015250565b6000610c456029836109df565b9150610c5082610be9565b604082019050919050565b60006020820190508181036000830152610c7481610c38565b9050919050565b6000604082019050610c90600083018561083b565b610c9d602083018461083b565b9392505050565b7f4e487b7100000000000000000000000000000000000000000000000000000000600052604160045260246000fd5b7f4d646c6f74746572793a20506c656173652070617920612076616c756520677260008201527f6561746572207468616e20312045746865720000000000000000000000000000602082015250565b6000610d2f6032836109df565b9150610d3a82610cd3565b604082019050919050565b60006020820190508181036000830152610d5e81610d22565b9050919050565b6000819050919050565b610d80610d7b82610831565b610d65565b82525050565b6000610d928286610d6f565b602082019150610da28285610d6f565b602082019150610db28284610d6f565b60208201915081905094935050505056fea2646970667358221220e132a6ea5b4594c49403cab9d4177b83fd658842d8fe9024247ba1ff366c0ec764736f6c634300081c0033",
  "linkReferences": {},
  "deployedLinkReferences": {}
}